{
  "_format": "hh-sol-artifact-1",
  "contractName": "Transactions",
  "sourceName": "contracts/Transactions.sol",
  "abi": [
    {
      "inputs": [],
      "stateMutability": "nonpayable",
      "type": "constructor"
    },
    {
      "anonymous": false,
      "inputs": [
        {
          "indexed": false,
          "internalType": "address payable",
          "name": "from",
          "type": "address"
        },
        {
          "indexed": false,
          "internalType": "address",
          "name": "to",
          "type": "address"
        },
        {
          "indexed": false,
          "internalType": "string",
          "name": "fileHash",
          "type": "string"
        },
        {
          "indexed": false,
          "internalType": "string",
          "name": "fileName",
          "type": "string"
        },
        {
          "indexed": false,
          "internalType": "uint256",
          "name": "timeStamp",
          "type": "uint256"
        }
      ],
      "name": "uploadFile",
      "type": "event"
    },
    {
      "inputs": [],
      "name": "getHistory",
      "outputs": [
        {
          "components": [
            {
              "internalType": "string",
              "name": "fileHash",
              "type": "string"
            },
            {
              "internalType": "string",
              "name": "fileName",
              "type": "string"
            },
            {
              "internalType": "uint256",
              "name": "timeStamp",
              "type": "uint256"
            }
          ],
          "internalType": "struct Transactions.UploadStruct[]",
          "name": "",
          "type": "tuple[]"
        }
      ],
      "stateMutability": "view",
      "type": "function"
    },
    {
      "inputs": [],
      "name": "getOwner",
      "outputs": [
        {
          "internalType": "address",
          "name": "",
          "type": "address"
        }
      ],
      "stateMutability": "view",
      "type": "function"
    },
    {
      "inputs": [],
      "name": "getTransactionCount",
      "outputs": [
        {
          "internalType": "uint256",
          "name": "",
          "type": "uint256"
        }
      ],
      "stateMutability": "view",
      "type": "function"
    },
    {
      "inputs": [
        {
          "internalType": "address payable",
          "name": "from",
          "type": "address"
        },
        {
          "internalType": "address",
          "name": "to",
          "type": "address"
        },
        {
          "internalType": "string",
          "name": "fileHash",
          "type": "string"
        },
        {
          "internalType": "string",
          "name": "fileName",
          "type": "string"
        }
      ],
      "name": "uploadResults",
      "outputs": [],
      "stateMutability": "nonpayable",
      "type": "function"
    }
  ],
  "bytecode": "0x608060405234801561001057600080fd5b506000808190555033600160006101000a81548173ffffffffffffffffffffffffffffffffffffffff021916908373ffffffffffffffffffffffffffffffffffffffff160217905550610abb806100686000396000f3fe608060405234801561001057600080fd5b506004361061004c5760003560e01c80632e7700f01461005157806347c085601461006f578063893d20e81461008b578063aa15efc8146100a9575b600080fd5b6100596100c7565b60405161006691906107bf565b60405180910390f35b61008960048036038101906100849190610500565b6100d0565b005b610093610214565b6040516100a09190610721565b60405180910390f35b6100b161023e565b6040516100be919061079d565b60405180910390f35b60008054905090565b600160009054906101000a900473ffffffffffffffffffffffffffffffffffffffff1673ffffffffffffffffffffffffffffffffffffffff163373ffffffffffffffffffffffffffffffffffffffff161461012a57600080fd5b600160008082825461013c91906108a1565b925050819055506002604051806060016040528084815260200183815260200142815250908060018154018082558091505060019003906000526020600020906003020160009091909190915060008201518160000190805190602001906101a59291906103cb565b5060208201518160010190805190602001906101c29291906103cb565b506040820151816002015550507f86bf0a3443147a4fd580ae573a79a7c59a49083ec3bc22492ce099bc1e572d54848484844260405161020695949392919061073c565b60405180910390a150505050565b6000600160009054906101000a900473ffffffffffffffffffffffffffffffffffffffff16905090565b60606002805480602002602001604051908101604052809291908181526020016000905b828210156103c2578382906000526020600020906003020160405180606001604052908160008201805461029590610987565b80601f01602080910402602001604051908101604052809291908181526020018280546102c190610987565b801561030e5780601f106102e35761010080835404028352916020019161030e565b820191906000526020600020905b8154815290600101906020018083116102f157829003601f168201915b5050505050815260200160018201805461032790610987565b80601f016020809104026020016040519081016040528092919081815260200182805461035390610987565b80156103a05780601f10610375576101008083540402835291602001916103a0565b820191906000526020600020905b81548152906001019060200180831161038357829003601f168201915b5050505050815260200160028201548152505081526020019060010190610262565b50505050905090565b8280546103d790610987565b90600052602060002090601f0160209004810192826103f95760008555610440565b82601f1061041257805160ff1916838001178555610440565b82800160010185558215610440579182015b8281111561043f578251825591602001919060010190610424565b5b50905061044d9190610451565b5090565b5b8082111561046a576000816000905550600101610452565b5090565b600061048161047c8461080b565b6107da565b90508281526020810184848401111561049957600080fd5b6104a4848285610945565b509392505050565b6000813590506104bb81610a57565b92915050565b6000813590506104d081610a6e565b92915050565b600082601f8301126104e757600080fd5b81356104f784826020860161046e565b91505092915050565b6000806000806080858703121561051657600080fd5b6000610524878288016104c1565b9450506020610535878288016104ac565b935050604085013567ffffffffffffffff81111561055257600080fd5b61055e878288016104d6565b925050606085013567ffffffffffffffff81111561057b57600080fd5b610587878288016104d6565b91505092959194509250565b600061059f83836106ac565b905092915050565b6105b081610909565b82525050565b6105bf816108f7565b82525050565b60006105d08261084b565b6105da818561086e565b9350836020820285016105ec8561083b565b8060005b8581101561062857848403895281516106098582610593565b945061061483610861565b925060208a019950506001810190506105f0565b50829750879550505050505092915050565b600061064582610856565b61064f818561087f565b935061065f818560208601610954565b61066881610a46565b840191505092915050565b600061067e82610856565b6106888185610890565b9350610698818560208601610954565b6106a181610a46565b840191505092915050565b600060608301600083015184820360008601526106c9828261063a565b915050602083015184820360208601526106e3828261063a565b91505060408301516106f86040860182610703565b508091505092915050565b61070c8161093b565b82525050565b61071b8161093b565b82525050565b600060208201905061073660008301846105b6565b92915050565b600060a08201905061075160008301886105a7565b61075e60208301876105b6565b81810360408301526107708186610673565b905081810360608301526107848185610673565b90506107936080830184610712565b9695505050505050565b600060208201905081810360008301526107b781846105c5565b905092915050565b60006020820190506107d46000830184610712565b92915050565b6000604051905081810181811067ffffffffffffffff8211171561080157610800610a17565b5b8060405250919050565b600067ffffffffffffffff82111561082657610825610a17565b5b601f19601f8301169050602081019050919050565b6000819050602082019050919050565b600081519050919050565b600081519050919050565b6000602082019050919050565b600082825260208201905092915050565b600082825260208201905092915050565b600082825260208201905092915050565b60006108ac8261093b565b91506108b78361093b565b9250827fffffffffffffffffffffffffffffffffffffffffffffffffffffffffffffffff038211156108ec576108eb6109b9565b5b828201905092915050565b60006109028261091b565b9050919050565b60006109148261091b565b9050919050565b600073ffffffffffffffffffffffffffffffffffffffff82169050919050565b6000819050919050565b82818337600083830152505050565b60005b83811015610972578082015181840152602081019050610957565b83811115610981576000848401525b50505050565b6000600282049050600182168061099f57607f821691505b602082108114156109b3576109b26109e8565b5b50919050565b7f4e487b7100000000000000000000000000000000000000000000000000000000600052601160045260246000fd5b7f4e487b7100000000000000000000000000000000000000000000000000000000600052602260045260246000fd5b7f4e487b7100000000000000000000000000000000000000000000000000000000600052604160045260246000fd5b6000601f19601f8301169050919050565b610a60816108f7565b8114610a6b57600080fd5b50565b610a7781610909565b8114610a8257600080fd5b5056fea264697066735822122021f276056a5113bc6f31d0e1f31414f68d8d365ac14731ace0bcdd37d9948f6264736f6c63430008000033",
  "linkReferences": {},
  "deployedLinkReferences": {}
}